{
  "contractName": "TimestampDemo",
  "abi": [
    {
      "constant": true,
      "inputs": [],
      "name": "getUsers",
      "outputs": [
        {
          "name": "",
          "type": "address[]"
        }
      ],
      "payable": false,
      "stateMutability": "view",
      "type": "function"
    },
    {
      "constant": false,
      "inputs": [
        {
          "name": "handle",
          "type": "string"
        },
        {
          "name": "city",
          "type": "bytes32"
        },
        {
          "name": "state",
          "type": "bytes32"
        },
        {
          "name": "country",
          "type": "bytes32"
        }
      ],
      "name": "registerNewUser",
      "outputs": [
        {
          "name": "success",
          "type": "bool"
        }
      ],
      "payable": false,
      "stateMutability": "nonpayable",
      "type": "function"
    },
    {
      "constant": true,
      "inputs": [
        {
          "name": "SHA256notaryHash",
          "type": "bytes32"
        }
      ],
      "name": "getImage",
      "outputs": [
        {
          "name": "",
          "type": "string"
        },
        {
          "name": "",
          "type": "uint256"
        }
      ],
      "payable": false,
      "stateMutability": "view",
      "type": "function"
    },
    {
      "constant": true,
      "inputs": [
        {
          "name": "userAddress",
          "type": "address"
        }
      ],
      "name": "getUser",
      "outputs": [
        {
          "name": "",
          "type": "string"
        },
        {
          "name": "",
          "type": "bytes32"
        },
        {
          "name": "",
          "type": "bytes32"
        },
        {
          "name": "",
          "type": "bytes32"
        },
        {
          "name": "",
          "type": "bytes32[]"
        }
      ],
      "payable": false,
      "stateMutability": "view",
      "type": "function"
    },
    {
      "constant": true,
      "inputs": [],
      "name": "getAllImages",
      "outputs": [
        {
          "name": "",
          "type": "bytes32[]"
        }
      ],
      "payable": false,
      "stateMutability": "view",
      "type": "function"
    },
    {
      "constant": false,
      "inputs": [
        {
          "name": "imageURL",
          "type": "string"
        },
        {
          "name": "SHA256notaryHash",
          "type": "bytes32"
        }
      ],
      "name": "addImageToUser",
      "outputs": [
        {
          "name": "success",
          "type": "bool"
        }
      ],
      "payable": false,
      "stateMutability": "nonpayable",
      "type": "function"
    },
    {
      "constant": false,
      "inputs": [
        {
          "name": "badUser",
          "type": "address"
        }
      ],
      "name": "removeUser",
      "outputs": [
        {
          "name": "success",
          "type": "bool"
        }
      ],
      "payable": false,
      "stateMutability": "nonpayable",
      "type": "function"
    },
    {
      "constant": false,
      "inputs": [
        {
          "name": "badImage",
          "type": "bytes32"
        }
      ],
      "name": "removeImage",
      "outputs": [
        {
          "name": "success",
          "type": "bool"
        }
      ],
      "payable": false,
      "stateMutability": "nonpayable",
      "type": "function"
    },
    {
      "constant": true,
      "inputs": [
        {
          "name": "userAddress",
          "type": "address"
        }
      ],
      "name": "getUserImages",
      "outputs": [
        {
          "name": "",
          "type": "bytes32[]"
        }
      ],
      "payable": false,
      "stateMutability": "view",
      "type": "function"
    },
    {
      "inputs": [],
      "payable": true,
      "stateMutability": "payable",
      "type": "constructor"
    }
  ],
  "bytecode": "0x6060604052336000806101000a81548173ffffffffffffffffffffffffffffffffffffffff021916908373ffffffffffffffffffffffffffffffffffffffff1602179055506111bb806100536000396000f300606060405260043610610098576000357c0100000000000000000000000000000000000000000000000000000000900463ffffffff168062ce8e3e1461009d578063124b1789146101075780636ced1ae9146101a35780636f77926b1461024a5780637b7284fc146103715780637f2a6a5c146103db578063985751881461045d5780639f6c9358146104ae578063eb6bbd78146104ed575b600080fd5b34156100a857600080fd5b6100b061057b565b6040518080602001828103825283818151815260200191508051906020019060200280838360005b838110156100f35780820151818401526020810190506100d8565b505050509050019250505060405180910390f35b341561011257600080fd5b610189600480803590602001908201803590602001908080601f0160208091040260200160405190810160405280939291908181526020018383808284378201915050505050509190803560001916906020019091908035600019169060200190919080356000191690602001909190505061060f565b604051808215151515815260200191505060405180910390f35b34156101ae57600080fd5b6101c8600480803560001916906020019091905050610834565b6040518080602001838152602001828103825284818151815260200191508051906020019080838360005b8381101561020e5780820151818401526020810190506101f3565b50505050905090810190601f16801561023b5780820380516001836020036101000a031916815260200191505b50935050505060405180910390f35b341561025557600080fd5b610281600480803573ffffffffffffffffffffffffffffffffffffffff16906020019091905050610920565b604051808060200186600019166000191681526020018560001916600019168152602001846000191660001916815260200180602001838103835288818151815260200191508051906020019080838360005b838110156102ef5780820151818401526020810190506102d4565b50505050905090810190601f16801561031c5780820380516001836020036101000a031916815260200191505b50838103825284818151815260200191508051906020019060200280838360005b8381101561035857808201518184015260208101905061033d565b5050505090500197505050505050505060405180910390f35b341561037c57600080fd5b610384610b87565b6040518080602001828103825283818151815260200191508051906020019060200280838360005b838110156103c75780820151818401526020810190506103ac565b505050509050019250505060405180910390f35b34156103e657600080fd5b610443600480803590602001908201803590602001908080601f0160208091040260200160405190810160405280939291908181526020018383808284378201915050505050509190803560001916906020019091905050610be9565b604051808215151515815260200191505060405180910390f35b341561046857600080fd5b610494600480803573ffffffffffffffffffffffffffffffffffffffff16906020019091905050610da8565b604051808215151515815260200191505060405180910390f35b34156104b957600080fd5b6104d3600480803560001916906020019091905050610e88565b604051808215151515815260200191505060405180910390f35b34156104f857600080fd5b610524600480803573ffffffffffffffffffffffffffffffffffffffff16906020019091905050610f24565b6040518080602001828103825283818151815260200191508051906020019060200280838360005b8381101561056757808201518184015260208101905061054c565b505050509050019250505060405180910390f35b610583610fc8565b600480548060200260200160405190810160405280929190818152602001828054801561060557602002820191906000526020600020905b8160009054906101000a900473ffffffffffffffffffffffffffffffffffffffff1673ffffffffffffffffffffffffffffffffffffffff16815260200190600101908083116105bb575b5050505050905090565b6000803390506000600360003373ffffffffffffffffffffffffffffffffffffffff1673ffffffffffffffffffffffffffffffffffffffff16815260200190815260200160002060000180546001816001161561010002031660029004905014801561067d57506000865114155b156108265785600360008373ffffffffffffffffffffffffffffffffffffffff1673ffffffffffffffffffffffffffffffffffffffff16815260200190815260200160002060000190805190602001906106d8929190610fdc565b5084600360008373ffffffffffffffffffffffffffffffffffffffff1673ffffffffffffffffffffffffffffffffffffffff168152602001908152602001600020600101816000191690555083600360008373ffffffffffffffffffffffffffffffffffffffff1673ffffffffffffffffffffffffffffffffffffffff168152602001908152602001600020600201816000191690555082600360008373ffffffffffffffffffffffffffffffffffffffff1673ffffffffffffffffffffffffffffffffffffffff1681526020019081526020016000206003018160001916905550600480548060010182816107ce919061105c565b9160005260206000209001600083909190916101000a81548173ffffffffffffffffffffffffffffffffffffffff021916908373ffffffffffffffffffffffffffffffffffffffff160217905550506001915061082b565b600091505b50949350505050565b61083c611088565b600060016000846000191660001916815260200190815260200160002060000160016000856000191660001916815260200190815260200160002060010154818054600181600116156101000203166002900480601f0160208091040260200160405190810160405280929190818152602001828054600181600116156101000203166002900480156109105780601f106108e557610100808354040283529160200191610910565b820191906000526020600020905b8154815290600101906020018083116108f357829003601f168201915b5050505050915091509150915091565b610928611088565b600080600061093561109c565b600360008773ffffffffffffffffffffffffffffffffffffffff1673ffffffffffffffffffffffffffffffffffffffff168152602001908152602001600020600001600360008873ffffffffffffffffffffffffffffffffffffffff1673ffffffffffffffffffffffffffffffffffffffff16815260200190815260200160002060010154600360008973ffffffffffffffffffffffffffffffffffffffff1673ffffffffffffffffffffffffffffffffffffffff16815260200190815260200160002060020154600360008a73ffffffffffffffffffffffffffffffffffffffff1673ffffffffffffffffffffffffffffffffffffffff16815260200190815260200160002060030154600360008b73ffffffffffffffffffffffffffffffffffffffff1673ffffffffffffffffffffffffffffffffffffffff168152602001908152602001600020600401848054600181600116156101000203166002900480601f016020809104026020016040519081016040528092919081815260200182805460018160011615610100020316600290048015610b175780601f10610aec57610100808354040283529160200191610b17565b820191906000526020600020905b815481529060010190602001808311610afa57829003601f168201915b5050505050945080805480602002602001604051908101604052809291908181526020018280548015610b6d57602002820191906000526020600020905b81546000191681526020019060010190808311610b55575b505050505090509450945094509450945091939590929450565b610b8f61109c565b6002805480602002602001604051908101604052809291908181526020018280548015610bdf57602002820191906000526020600020905b81546000191681526020019060010190808311610bc7575b5050505050905090565b6000803390506000600360008373ffffffffffffffffffffffffffffffffffffffff1673ffffffffffffffffffffffffffffffffffffffff168152602001908152602001600020600001805460018160011615610100020316600290049050141515610d9c5760008451141515610d935760006001600085600019166000191681526020019081526020016000206000018054600181600116156101000203166002900490501415610cc55760028054806001018281610ca991906110b0565b9160005260206000209001600085909190915090600019169055505b836001600085600019166000191681526020019081526020016000206000019080519060200190610cf7929190610fdc565b504260016000856000191660001916815260200190815260200160002060010181905550600360008273ffffffffffffffffffffffffffffffffffffffff1673ffffffffffffffffffffffffffffffffffffffff1681526020019081526020016000206004018054806001018281610d6f91906110b0565b91600052602060002090016000859091909150906000191690555060019150610da1565b60009150610da1565b600091505b5092915050565b60008060009054906101000a900473ffffffffffffffffffffffffffffffffffffffff1673ffffffffffffffffffffffffffffffffffffffff163373ffffffffffffffffffffffffffffffffffffffff16141515610e0557600080fd5b600360008373ffffffffffffffffffffffffffffffffffffffff1673ffffffffffffffffffffffffffffffffffffffff16815260200190815260200160002060008082016000610e5591906110dc565b600182016000905560028201600090556003820160009055600482016000610e7d9190611124565b505060019050919050565b60008060009054906101000a900473ffffffffffffffffffffffffffffffffffffffff1673ffffffffffffffffffffffffffffffffffffffff163373ffffffffffffffffffffffffffffffffffffffff16141515610ee557600080fd5b60016000836000191660001916815260200190815260200160002060008082016000610f1191906110dc565b6001820160009055505060019050919050565b610f2c61109c565b600360008373ffffffffffffffffffffffffffffffffffffffff1673ffffffffffffffffffffffffffffffffffffffff168152602001908152602001600020600401805480602002602001604051908101604052809291908181526020018280548015610fbc57602002820191906000526020600020905b81546000191681526020019060010190808311610fa4575b50505050509050919050565b602060405190810160405280600081525090565b828054600181600116156101000203166002900490600052602060002090601f016020900481019282601f1061101d57805160ff191683800117855561104b565b8280016001018555821561104b579182015b8281111561104a57825182559160200191906001019061102f565b5b5090506110589190611145565b5090565b815481835581811511611083578183600052602060002091820191016110829190611145565b5b505050565b602060405190810160405280600081525090565b602060405190810160405280600081525090565b8154818355818115116110d7578183600052602060002091820191016110d6919061116a565b5b505050565b50805460018160011615610100020316600290046000825580601f106111025750611121565b601f0160209004906000526020600020908101906111209190611145565b5b50565b5080546000825590600052602060002090810190611142919061116a565b50565b61116791905b8082111561116357600081600090555060010161114b565b5090565b90565b61118c91905b80821115611188576000816000905550600101611170565b5090565b905600a165627a7a723058203bdaa6a040a832aeead1b97ca86e2a64dfaf3d92b29e2c0698ee36ed9492afa90029",
  "source": "pragma solidity ^0.4.4;\n\n// Simple Solidity demo for upload images and add timestamp to blockchain\ncontract TimestampDemo {\n\n  address AdminUser;\n\n  mapping ( bytes32 => notarizedImage) notarizedImages; // this allows to look up notarizedImages by their SHA256notaryHash\n  bytes32[] imagesByNotaryHash; // this is like a whitepages of all images, by SHA256notaryHash\n\n  mapping ( address => User ) Users;   // this allows to look up Users by their ethereum address\n  address[] usersByAddress;  // this is like a whitepages of all users, by ethereum address\n\n  struct notarizedImage {\n    string imageURL;\n    uint timeStamp;\n  }\n\n  struct User {\n    string handle;\n    bytes32 city;\n    bytes32 state;\n    bytes32 country;\n    bytes32[] myImages;\n  }\n\n  function TimestampDemo() payable {  // this is the CONSTRUCTOR (same name as contract) it gets called ONCE only when contract is first deployed\n    AdminUser = msg.sender;  // just set the admin, so they can remove bad users or images if needed, but nobody else can\n  }\n\n  modifier onlyAdmin() {\n      if (msg.sender != AdminUser)\n        throw;\n      // Do not forget the \"_;\"! It will be replaced by the actual function body when the modifier is used.\n      _;\n  }\n\n  function removeUser(address badUser) onlyAdmin returns (bool success) {\n    delete Users[badUser];\n    return true;\n  }\n\n  function removeImage(bytes32 badImage) onlyAdmin returns (bool success) {\n    delete notarizedImages[badImage];\n    return true;\n  }\n\n  function registerNewUser(string handle, bytes32 city, bytes32 state, bytes32 country) returns (bool success) {\n    address thisNewAddress = msg.sender;\n    // don't overwrite existing entries, and make sure handle isn't null\n    if(bytes(Users[msg.sender].handle).length == 0 && bytes(handle).length != 0){\n      Users[thisNewAddress].handle = handle;\n      Users[thisNewAddress].city = city;\n      Users[thisNewAddress].state = state;\n      Users[thisNewAddress].country = country;\n      usersByAddress.push(thisNewAddress);  // adds an entry for this user to the user 'whitepages'\n      return true;\n    } else {\n      return false; // either handle was null, or a user with this handle already existed\n    }\n  }\n\n  function addImageToUser(string imageURL, bytes32 SHA256notaryHash) returns (bool success) {\n    address thisNewAddress = msg.sender;\n    if(bytes(Users[thisNewAddress].handle).length != 0){ // make sure this user has created an account first\n      if(bytes(imageURL).length != 0){   // ) {  // couldn't get bytes32 null check to work, oh well!\n        // prevent users from fighting over sha->image listings in the whitepages, but still allow them to add a personal ref to any sha\n        if(bytes(notarizedImages[SHA256notaryHash].imageURL).length == 0) {\n          imagesByNotaryHash.push(SHA256notaryHash); // adds entry for this image to our image whitepages\n        }\n        notarizedImages[SHA256notaryHash].imageURL = imageURL;\n        notarizedImages[SHA256notaryHash].timeStamp = block.timestamp; // note that updating an image also updates the timestamp\n        Users[thisNewAddress].myImages.push(SHA256notaryHash); // add the image hash to this users .myImages array\n        return true;\n      } else {\n        return false; // either imageURL or SHA256notaryHash was null, couldn't store image\n      }\n      return true;\n    } else {\n      return false; // user didn't have an account yet, couldn't store image\n    }\n  }\n\n  function getUsers() constant returns (address[]) { return usersByAddress; }\n\n  function getUser(address userAddress) constant returns (string,bytes32,bytes32,bytes32,bytes32[]) {\n    return (Users[userAddress].handle,Users[userAddress].city,Users[userAddress].state,Users[userAddress].country,Users[userAddress].myImages);\n  }\n\n  function getAllImages() constant returns (bytes32[]) { return imagesByNotaryHash; }\n\n  function getUserImages(address userAddress) constant returns (bytes32[]) { return Users[userAddress].myImages; }\n\n  function getImage(bytes32 SHA256notaryHash) constant returns (string,uint) {\n    return (notarizedImages[SHA256notaryHash].imageURL,notarizedImages[SHA256notaryHash].timeStamp);\n  }\n\n}\n",
  "sourcePath": "/home/sebaponti/projects/eth/ethereum-demos/TimestampDemo/contracts/TimestampDemo.sol",
  "compiler": {
    "name": "solc",
    "version": "0.4.18+commit.9cf6e910.Emscripten.clang"
  },
  "schemaVersion": "1.0.1",
  "updatedAt": "2018-02-06T14:08:40.991Z"
}